:1000000012C02AC029C028C027C026C025C024C0CD
:1000100023C022C021C020C01FC01EC01DC01CC0E4
:100020001BC01AC019C011241FBECFEDCDBF10E0F8
:10003000A0E6B0E0E0EFF0E002C005900D92AE3631
:10004000B107D9F720E0AEE6B0E001C01D92AE36B0
:10005000B207E1F702D04AC0D3CF19D0B89AC09AFC
:1000600080E690E02AD02FEF89E698E12150804089
:100070009040E1F700C00000C0982FEF89E698E1BA
:10008000215080409040E1F700C00000E8CF12B856
:1000900083E389B988E18AB98EE083B908958BB189
:1000A00085FB882780F90895FC019F01281B390BE7
:1000B00041914111FACFC90108950F931F93CF9336
:1000C000DF938C01EC01C801EFDF9E01201B310B97
:1000D0002817390730F4E3DF8823E9F389918CB9D5
:1000E000F2CFDF91CF911F910F910895F894FFCF38
:0E00F00068656C6C6F20776F726C64210A007B
:00000001FF
