:100000000C9434000C9451000C9451000C94510049
:100010000C9451000C9451000C9451000C9451001C
:100020000C9451000C9451000C9451000C9451000C
:100030000C9451000C9451000C9451000C945100FC
:100040000C9451000C9451000C9451000C945100EC
:100050000C9451000C9451000C9451000C945100DC
:100060000C9451000C94510011241FBECFEFD8E026
:10007000DEBFCDBF11E0A0E0B1E0E0E5F1E002C0FD
:1000800005900D92AE30B107D9F721E0AEE0B1E0B6
:1000900001C01D92AE30B207E1F70E9453000C94EC
:1000A000A6000C9400000E946F00209A289A80E01D
:1000B00091E00E948A002FEF89E698E1215080406C
:1000C0009040E1F700C0000028982FEF89E698E102
:1000D000215080409040E1F700C00000E7CF10922F
:1000E000C50083E38093C40088E18093C1008EE063
:1000F0008093C20008958091C00085FB882780F915
:100100000895FC019F01281B390B41914111FACF41
:10011000C90108950F931F93CF93DF938C01EC01D6
:10012000C8010E9481009E01201B310B281739074E
:1001300040F40E947B008823E1F389918093C600FC
:10014000EFCFDF91CF911F910F910895F894FFCFDA
:0E01500068656C6C6F20776F726C64210A001A
:00000001FF
